:1000000009C018951895189518951895189518956C
:10001000189518958FE98DBFC8E9E8EA4E2EDD27BF
:100020005D2EA89584B7082E877F84BF88E1992725
:1000300081BD91BDEEE3F0E0A0E6B0E088278D93AE
:100040003197E9F76624BC9ABB9ABA98B898C39AD4
:10005000C29A80E090E0A0E68D939C93C49A80E1E0
:1000600097E221D0B09B01C0F4CFB29905C081E0E6
:1000700090E0A0E68D939C93A0E60D911C91013039
:1000800050E0150709F002C0C49801C0C49AEACF35
:10009000F894FFCF3197F1F70895689462F80895C6
:1000A000E89462F80895EF93FF93EE27E82BE92B8D
:1000B00031F0ECE2F1E03197F1F70197D1F7FF91E0
:0400C000EF9108951F
:00000001FF
